:0400000002001932AF
:01000B0032C2
:0300130002007B6D
:0900720075080075090102001671
:030016000200AB3A
:20007B00C0E0C0D020B324E5086007E50904F5098005E50914F509E50924F7500575090198
:20009B00800974FF25094003750908D0D0D0E032D2B4D2B5D2B343900FD2AFD2AAD28AA261
:2000BB00B4E433F50830B503020148E509FF24F74075EFF5F0240B83F582E5F0240D83F5F2
:2000DB0083E47342F0FA040E18222C37010000010101010101E59054F04401F59080C0E5A1
:2000FB009054F04403F59080B6E59054F04402F59080ACE59054F04406F59080A2E59054EC
:20011B00F04404F5908098E59054F0440CF590808EE59054F04408F5900200BAE59054F054
:13013B004409F5900200BA5390F00200BA5390F00200BA05
:06004800E478FFF6D8FD8C
:200026007900E94400601B7A00900152780175A000E493F2A308B8000205A0D9F4DAF2752D
:02004600A0FF19
:20004E007800E84400600A790175A000E4F309D8FC7800E84400600C7900900001E4F0A3B0
:04006E00D8FCD9FAE7
:0D00190075810912014EE582600302001698
:04014E007582002294
:00000001FF
